{
	"data": {
		"bytecode": {
			"linkReferences": {},
			"object": "608060405234801561001057600080fd5b506040516080806101ed8339810180604052608081101561003057600080fd5b50805160208201516040830151606090930151600092909255600280546001600160a01b039092166001600160a01b031992831617905560049290925560035560018054909116331790556101638061008a6000396000f3fe608060405234801561001057600080fd5b50600436106100625760003560e01c8063195199f614610067578063217a4b701461008657806329dcb0cf146100aa5780635f8d96de146100c4578063a035b1fe146100cc578063aa8c217c146100d4575b600080fd5b6100846004803603602081101561007d57600080fd5b50356100dc565b005b61008e6100f8565b604080516001600160a01b039092168252519081900360200190f35b6100b2610107565b60408051918252519081900360200190f35b6100b261010d565b6100b261012b565b6100b2610131565b6001546001600160a01b03163314156100f55760008190555b50565b6002546001600160a01b031681565b60005481565b6001546000906001600160a01b031633141561012857506000545b90565b60035481565b6004548156fea165627a7a7230582069b75fdcb6b213e42c632452380ffbc81ec4d4b112e7f0e190636b48b432c7210029",
			"opcodes": "PUSH1 0x80 PUSH1 0x40 MSTORE CALLVALUE DUP1 ISZERO PUSH2 0x10 JUMPI PUSH1 0x0 DUP1 REVERT JUMPDEST POP PUSH1 0x40 MLOAD PUSH1 0x80 DUP1 PUSH2 0x1ED DUP4 CODECOPY DUP2 ADD DUP1 PUSH1 0x40 MSTORE PUSH1 0x80 DUP2 LT ISZERO PUSH2 0x30 JUMPI PUSH1 0x0 DUP1 REVERT JUMPDEST POP DUP1 MLOAD PUSH1 0x20 DUP3 ADD MLOAD PUSH1 0x40 DUP4 ADD MLOAD PUSH1 0x60 SWAP1 SWAP4 ADD MLOAD PUSH1 0x0 SWAP3 SWAP1 SWAP3 SSTORE PUSH1 0x2 DUP1 SLOAD PUSH1 0x1 PUSH1 0x1 PUSH1 0xA0 SHL SUB SWAP1 SWAP3 AND PUSH1 0x1 PUSH1 0x1 PUSH1 0xA0 SHL SUB NOT SWAP3 DUP4 AND OR SWAP1 SSTORE PUSH1 0x4 SWAP3 SWAP1 SWAP3 SSTORE PUSH1 0x3 SSTORE PUSH1 0x1 DUP1 SLOAD SWAP1 SWAP2 AND CALLER OR SWAP1 SSTORE PUSH2 0x163 DUP1 PUSH2 0x8A PUSH1 0x0 CODECOPY PUSH1 0x0 RETURN INVALID PUSH1 0x80 PUSH1 0x40 MSTORE CALLVALUE DUP1 ISZERO PUSH2 0x10 JUMPI PUSH1 0x0 DUP1 REVERT JUMPDEST POP PUSH1 0x4 CALLDATASIZE LT PUSH2 0x62 JUMPI PUSH1 0x0 CALLDATALOAD PUSH1 0xE0 SHR DUP1 PUSH4 0x195199F6 EQ PUSH2 0x67 JUMPI DUP1 PUSH4 0x217A4B70 EQ PUSH2 0x86 JUMPI DUP1 PUSH4 0x29DCB0CF EQ PUSH2 0xAA JUMPI DUP1 PUSH4 0x5F8D96DE EQ PUSH2 0xC4 JUMPI DUP1 PUSH4 0xA035B1FE EQ PUSH2 0xCC JUMPI DUP1 PUSH4 0xAA8C217C EQ PUSH2 0xD4 JUMPI JUMPDEST PUSH1 0x0 DUP1 REVERT JUMPDEST PUSH2 0x84 PUSH1 0x4 DUP1 CALLDATASIZE SUB PUSH1 0x20 DUP2 LT ISZERO PUSH2 0x7D JUMPI PUSH1 0x0 DUP1 REVERT JUMPDEST POP CALLDATALOAD PUSH2 0xDC JUMP JUMPDEST STOP JUMPDEST PUSH2 0x8E PUSH2 0xF8 JUMP JUMPDEST PUSH1 0x40 DUP1 MLOAD PUSH1 0x1 PUSH1 0x1 PUSH1 0xA0 SHL SUB SWAP1 SWAP3 AND DUP3 MSTORE MLOAD SWAP1 DUP2 SWAP1 SUB PUSH1 0x20 ADD SWAP1 RETURN JUMPDEST PUSH2 0xB2 PUSH2 0x107 JUMP JUMPDEST PUSH1 0x40 DUP1 MLOAD SWAP2 DUP3 MSTORE MLOAD SWAP1 DUP2 SWAP1 SUB PUSH1 0x20 ADD SWAP1 RETURN JUMPDEST PUSH2 0xB2 PUSH2 0x10D JUMP JUMPDEST PUSH2 0xB2 PUSH2 0x12B JUMP JUMPDEST PUSH2 0xB2 PUSH2 0x131 JUMP JUMPDEST PUSH1 0x1 SLOAD PUSH1 0x1 PUSH1 0x1 PUSH1 0xA0 SHL SUB AND CALLER EQ ISZERO PUSH2 0xF5 JUMPI PUSH1 0x0 DUP2 SWAP1 SSTORE JUMPDEST POP JUMP JUMPDEST PUSH1 0x2 SLOAD PUSH1 0x1 PUSH1 0x1 PUSH1 0xA0 SHL SUB AND DUP2 JUMP JUMPDEST PUSH1 0x0 SLOAD DUP2 JUMP JUMPDEST PUSH1 0x1 SLOAD PUSH1 0x0 SWAP1 PUSH1 0x1 PUSH1 0x1 PUSH1 0xA0 SHL SUB AND CALLER EQ ISZERO PUSH2 0x128 JUMPI POP PUSH1 0x0 SLOAD JUMPDEST SWAP1 JUMP JUMPDEST PUSH1 0x3 SLOAD DUP2 JUMP JUMPDEST PUSH1 0x4 SLOAD DUP2 JUMP INVALID LOG1 PUSH6 0x627A7A723058 KECCAK256 PUSH10 0xB75FDCB6B213E42C6324 MSTORE CODESIZE 0xf 0xfb 0xc8 0x1e 0xc4 0xd4 0xb1 SLT 0xe7 CREATE 0xe1 SWAP1 PUSH4 0x6B48B432 0xc7 0x21 STOP 0x29 "
		},
		"gasEstimates": {
			"creation": {
				"codeDepositCost": "71000",
				"executionCost": "100757",
				"totalCost": "171757"
			},
			"external": {
				"amount()": "486",
				"deadline()": "420",
				"getDeadline()": "693",
				"price()": "464",
				"quoteToken()": "437",
				"setDeadline(uint256)": "20418"
			}
		},
		"methodIdentifiers": {
			"amount()": "aa8c217c",
			"deadline()": "29dcb0cf",
			"getDeadline()": "5f8d96de",
			"price()": "a035b1fe",
			"quoteToken()": "217a4b70",
			"setDeadline(uint256)": "195199f6"
		}
	},
	"abi": [
		{
			"constant": false,
			"inputs": [
				{
					"name": "_deadline",
					"type": "uint256"
				}
			],
			"name": "setDeadline",
			"outputs": [],
			"payable": false,
			"stateMutability": "nonpayable",
			"type": "function"
		},
		{
			"constant": true,
			"inputs": [],
			"name": "quoteToken",
			"outputs": [
				{
					"name": "",
					"type": "address"
				}
			],
			"payable": false,
			"stateMutability": "view",
			"type": "function"
		},
		{
			"constant": true,
			"inputs": [],
			"name": "deadline",
			"outputs": [
				{
					"name": "",
					"type": "uint256"
				}
			],
			"payable": false,
			"stateMutability": "view",
			"type": "function"
		},
		{
			"constant": true,
			"inputs": [],
			"name": "getDeadline",
			"outputs": [
				{
					"name": "_deadline",
					"type": "uint256"
				}
			],
			"payable": false,
			"stateMutability": "view",
			"type": "function"
		},
		{
			"constant": true,
			"inputs": [],
			"name": "price",
			"outputs": [
				{
					"name": "",
					"type": "uint256"
				}
			],
			"payable": false,
			"stateMutability": "view",
			"type": "function"
		},
		{
			"constant": true,
			"inputs": [],
			"name": "amount",
			"outputs": [
				{
					"name": "",
					"type": "uint256"
				}
			],
			"payable": false,
			"stateMutability": "view",
			"type": "function"
		},
		{
			"inputs": [
				{
					"name": "_deadline",
					"type": "uint256"
				},
				{
					"name": "_quoteToken",
					"type": "address"
				},
				{
					"name": "_amount",
					"type": "uint256"
				},
				{
					"name": "_price",
					"type": "uint256"
				}
			],
			"payable": false,
			"stateMutability": "nonpayable",
			"type": "constructor"
		}
	]
}