{
	"data": {
		"bytecode": {
			"linkReferences": {},
			"object": "608060405234801561001057600080fd5b5061037a806100206000396000f30060806040526004361061006c5763ffffffff7c010000000000000000000000000000000000000000000000000000000060003504166302bf9e7f8114610071578063192a1599146100c2578063a490b6c1146100f9578063c5f974aa146100c2578063cc3c0f0614610149575b600080fd5b34801561007d57600080fd5b506100ae73ffffffffffffffffffffffffffffffffffffffff6004351660243560ff60443516606435608435610161565b604080519115158252519081900360200190f35b3480156100ce57600080fd5b506100ae73ffffffffffffffffffffffffffffffffffffffff60043581169060243516604435610200565b34801561010557600080fd5b506100ae60ff6004351660243560443573ffffffffffffffffffffffffffffffffffffffff60643581169060843581169060a4351660c43560e43561010435610209565b34801561015557600080fd5b506100ae600435610339565b604080516000808252602080830180855288905260ff87168385015260608301869052608083018590529251909273ffffffffffffffffffffffffffffffffffffffff89169260019260a08083019392601f19830192908190039091019087865af11580156101d4573d6000803e3d6000fd5b5050506020604051035173ffffffffffffffffffffffffffffffffffffffff1614905095945050505050565b60019392505050565b604080516c0100000000000000000000000073ffffffffffffffffffffffffffffffffffffffff808a1682028352808916820260148401528716026028820152603c8101859052605c8101849052607c8101839052905190819003609c01902060009061027988828d8d8d610161565b1515610288576000915061032b565b82431115610299576000915061032b565b6102a4888887610200565b15806102b857506102b6888887610200565b155b806102cb57506102c9328786610200565b155b806102de57506102dc328786610200565b155b156102ec576000915061032b565b60008181526020819052604090205460ff161561030c576000915061032b565b6000818152602081905260409020805460ff1916600190811790915591505b509998505050505050505050565b60006020819052908152604090205460ff16815600a165627a7a72305820204f8c84010a2c7725df5e34407b400ac15d2968220a8d2f42e86c39655cd9250029",
			"opcodes": "PUSH1 0x80 PUSH1 0x40 MSTORE CALLVALUE DUP1 ISZERO PUSH2 0x10 JUMPI PUSH1 0x0 DUP1 REVERT JUMPDEST POP PUSH2 0x37A DUP1 PUSH2 0x20 PUSH1 0x0 CODECOPY PUSH1 0x0 RETURN STOP PUSH1 0x80 PUSH1 0x40 MSTORE PUSH1 0x4 CALLDATASIZE LT PUSH2 0x6C JUMPI PUSH4 0xFFFFFFFF PUSH29 0x100000000000000000000000000000000000000000000000000000000 PUSH1 0x0 CALLDATALOAD DIV AND PUSH4 0x2BF9E7F DUP2 EQ PUSH2 0x71 JUMPI DUP1 PUSH4 0x192A1599 EQ PUSH2 0xC2 JUMPI DUP1 PUSH4 0xA490B6C1 EQ PUSH2 0xF9 JUMPI DUP1 PUSH4 0xC5F974AA EQ PUSH2 0xC2 JUMPI DUP1 PUSH4 0xCC3C0F06 EQ PUSH2 0x149 JUMPI JUMPDEST PUSH1 0x0 DUP1 REVERT JUMPDEST CALLVALUE DUP1 ISZERO PUSH2 0x7D JUMPI PUSH1 0x0 DUP1 REVERT JUMPDEST POP PUSH2 0xAE PUSH20 0xFFFFFFFFFFFFFFFFFFFFFFFFFFFFFFFFFFFFFFFF PUSH1 0x4 CALLDATALOAD AND PUSH1 0x24 CALLDATALOAD PUSH1 0xFF PUSH1 0x44 CALLDATALOAD AND PUSH1 0x64 CALLDATALOAD PUSH1 0x84 CALLDATALOAD PUSH2 0x161 JUMP JUMPDEST PUSH1 0x40 DUP1 MLOAD SWAP2 ISZERO ISZERO DUP3 MSTORE MLOAD SWAP1 DUP2 SWAP1 SUB PUSH1 0x20 ADD SWAP1 RETURN JUMPDEST CALLVALUE DUP1 ISZERO PUSH2 0xCE JUMPI PUSH1 0x0 DUP1 REVERT JUMPDEST POP PUSH2 0xAE PUSH20 0xFFFFFFFFFFFFFFFFFFFFFFFFFFFFFFFFFFFFFFFF PUSH1 0x4 CALLDATALOAD DUP2 AND SWAP1 PUSH1 0x24 CALLDATALOAD AND PUSH1 0x44 CALLDATALOAD PUSH2 0x200 JUMP JUMPDEST CALLVALUE DUP1 ISZERO PUSH2 0x105 JUMPI PUSH1 0x0 DUP1 REVERT JUMPDEST POP PUSH2 0xAE PUSH1 0xFF PUSH1 0x4 CALLDATALOAD AND PUSH1 0x24 CALLDATALOAD PUSH1 0x44 CALLDATALOAD PUSH20 0xFFFFFFFFFFFFFFFFFFFFFFFFFFFFFFFFFFFFFFFF PUSH1 0x64 CALLDATALOAD DUP2 AND SWAP1 PUSH1 0x84 CALLDATALOAD DUP2 AND SWAP1 PUSH1 0xA4 CALLDATALOAD AND PUSH1 0xC4 CALLDATALOAD PUSH1 0xE4 CALLDATALOAD PUSH2 0x104 CALLDATALOAD PUSH2 0x209 JUMP JUMPDEST CALLVALUE DUP1 ISZERO PUSH2 0x155 JUMPI PUSH1 0x0 DUP1 REVERT JUMPDEST POP PUSH2 0xAE PUSH1 0x4 CALLDATALOAD PUSH2 0x339 JUMP JUMPDEST PUSH1 0x40 DUP1 MLOAD PUSH1 0x0 DUP1 DUP3 MSTORE PUSH1 0x20 DUP1 DUP4 ADD DUP1 DUP6 MSTORE DUP9 SWAP1 MSTORE PUSH1 0xFF DUP8 AND DUP4 DUP6 ADD MSTORE PUSH1 0x60 DUP4 ADD DUP7 SWAP1 MSTORE PUSH1 0x80 DUP4 ADD DUP6 SWAP1 MSTORE SWAP3 MLOAD SWAP1 SWAP3 PUSH20 0xFFFFFFFFFFFFFFFFFFFFFFFFFFFFFFFFFFFFFFFF DUP10 AND SWAP3 PUSH1 0x1 SWAP3 PUSH1 0xA0 DUP1 DUP4 ADD SWAP4 SWAP3 PUSH1 0x1F NOT DUP4 ADD SWAP3 SWAP1 DUP2 SWAP1 SUB SWAP1 SWAP2 ADD SWAP1 DUP8 DUP7 GAS CALL ISZERO DUP1 ISZERO PUSH2 0x1D4 JUMPI RETURNDATASIZE PUSH1 0x0 DUP1 RETURNDATACOPY RETURNDATASIZE PUSH1 0x0 REVERT JUMPDEST POP POP POP PUSH1 0x20 PUSH1 0x40 MLOAD SUB MLOAD PUSH20 0xFFFFFFFFFFFFFFFFFFFFFFFFFFFFFFFFFFFFFFFF AND EQ SWAP1 POP SWAP6 SWAP5 POP POP POP POP POP JUMP JUMPDEST PUSH1 0x1 SWAP4 SWAP3 POP POP POP JUMP JUMPDEST PUSH1 0x40 DUP1 MLOAD PUSH13 0x1000000000000000000000000 PUSH20 0xFFFFFFFFFFFFFFFFFFFFFFFFFFFFFFFFFFFFFFFF DUP1 DUP11 AND DUP3 MUL DUP4 MSTORE DUP1 DUP10 AND DUP3 MUL PUSH1 0x14 DUP5 ADD MSTORE DUP8 AND MUL PUSH1 0x28 DUP3 ADD MSTORE PUSH1 0x3C DUP2 ADD DUP6 SWAP1 MSTORE PUSH1 0x5C DUP2 ADD DUP5 SWAP1 MSTORE PUSH1 0x7C DUP2 ADD DUP4 SWAP1 MSTORE SWAP1 MLOAD SWAP1 DUP2 SWAP1 SUB PUSH1 0x9C ADD SWAP1 KECCAK256 PUSH1 0x0 SWAP1 PUSH2 0x279 DUP9 DUP3 DUP14 DUP14 DUP14 PUSH2 0x161 JUMP JUMPDEST ISZERO ISZERO PUSH2 0x288 JUMPI PUSH1 0x0 SWAP2 POP PUSH2 0x32B JUMP JUMPDEST DUP3 NUMBER GT ISZERO PUSH2 0x299 JUMPI PUSH1 0x0 SWAP2 POP PUSH2 0x32B JUMP JUMPDEST PUSH2 0x2A4 DUP9 DUP9 DUP8 PUSH2 0x200 JUMP JUMPDEST ISZERO DUP1 PUSH2 0x2B8 JUMPI POP PUSH2 0x2B6 DUP9 DUP9 DUP8 PUSH2 0x200 JUMP JUMPDEST ISZERO JUMPDEST DUP1 PUSH2 0x2CB JUMPI POP PUSH2 0x2C9 ORIGIN DUP8 DUP7 PUSH2 0x200 JUMP JUMPDEST ISZERO JUMPDEST DUP1 PUSH2 0x2DE JUMPI POP PUSH2 0x2DC ORIGIN DUP8 DUP7 PUSH2 0x200 JUMP JUMPDEST ISZERO JUMPDEST ISZERO PUSH2 0x2EC JUMPI PUSH1 0x0 SWAP2 POP PUSH2 0x32B JUMP JUMPDEST PUSH1 0x0 DUP2 DUP2 MSTORE PUSH1 0x20 DUP2 SWAP1 MSTORE PUSH1 0x40 SWAP1 KECCAK256 SLOAD PUSH1 0xFF AND ISZERO PUSH2 0x30C JUMPI PUSH1 0x0 SWAP2 POP PUSH2 0x32B JUMP JUMPDEST PUSH1 0x0 DUP2 DUP2 MSTORE PUSH1 0x20 DUP2 SWAP1 MSTORE PUSH1 0x40 SWAP1 KECCAK256 DUP1 SLOAD PUSH1 0xFF NOT AND PUSH1 0x1 SWAP1 DUP2 OR SWAP1 SWAP2 SSTORE SWAP2 POP JUMPDEST POP SWAP10 SWAP9 POP POP POP POP POP POP POP POP POP JUMP JUMPDEST PUSH1 0x0 PUSH1 0x20 DUP2 SWAP1 MSTORE SWAP1 DUP2 MSTORE PUSH1 0x40 SWAP1 KECCAK256 SLOAD PUSH1 0xFF AND DUP2 JUMP STOP LOG1 PUSH6 0x627A7A723058 KECCAK256 KECCAK256 0x4f DUP13 DUP5 ADD EXP 0x2c PUSH24 0x25DF5E34407B400AC15D2968220A8D2F42E86C39655CD925 STOP 0x29 "
		},
		"gasEstimates": {
			"creation": {
				"codeDepositCost": "178000",
				"executionCost": "220",
				"totalCost": "178220"
			},
			"external": {
				"claim(uint8,bytes32,bytes32,address,address,address,uint256,uint256,uint256)": "infinite",
				"claimed(bytes32)": "559",
				"verifyApproval(address,address,uint256)": "254",
				"verifyBalance(address,address,uint256)": "298",
				"verifySignature(address,bytes32,uint8,bytes32,bytes32)": "infinite"
			}
		},
		"methodIdentifiers": {
			"claim(uint8,bytes32,bytes32,address,address,address,uint256,uint256,uint256)": "a490b6c1",
			"claimed(bytes32)": "cc3c0f06",
			"verifyApproval(address,address,uint256)": "192a1599",
			"verifyBalance(address,address,uint256)": "c5f974aa",
			"verifySignature(address,bytes32,uint8,bytes32,bytes32)": "02bf9e7f"
		}
	},
	"abi": [
		{
			"constant": true,
			"inputs": [
				{
					"name": "signer",
					"type": "address"
				},
				{
					"name": "hash",
					"type": "bytes32"
				},
				{
					"name": "v",
					"type": "uint8"
				},
				{
					"name": "r",
					"type": "bytes32"
				},
				{
					"name": "s",
					"type": "bytes32"
				}
			],
			"name": "verifySignature",
			"outputs": [
				{
					"name": "",
					"type": "bool"
				}
			],
			"payable": false,
			"stateMutability": "view",
			"type": "function"
		},
		{
			"constant": true,
			"inputs": [
				{
					"name": "owner",
					"type": "address"
				},
				{
					"name": "token",
					"type": "address"
				},
				{
					"name": "amount",
					"type": "uint256"
				}
			],
			"name": "verifyApproval",
			"outputs": [
				{
					"name": "",
					"type": "bool"
				}
			],
			"payable": false,
			"stateMutability": "view",
			"type": "function"
		},
		{
			"constant": false,
			"inputs": [
				{
					"name": "_v",
					"type": "uint8"
				},
				{
					"name": "_r",
					"type": "bytes32"
				},
				{
					"name": "_s",
					"type": "bytes32"
				},
				{
					"name": "_signer",
					"type": "address"
				},
				{
					"name": "_tokenA",
					"type": "address"
				},
				{
					"name": "_tokenB",
					"type": "address"
				},
				{
					"name": "_valueA",
					"type": "uint256"
				},
				{
					"name": "_valueB",
					"type": "uint256"
				},
				{
					"name": "_expiration",
					"type": "uint256"
				}
			],
			"name": "claim",
			"outputs": [
				{
					"name": "success",
					"type": "bool"
				}
			],
			"payable": false,
			"stateMutability": "nonpayable",
			"type": "function"
		},
		{
			"constant": true,
			"inputs": [
				{
					"name": "owner",
					"type": "address"
				},
				{
					"name": "token",
					"type": "address"
				},
				{
					"name": "amount",
					"type": "uint256"
				}
			],
			"name": "verifyBalance",
			"outputs": [
				{
					"name": "",
					"type": "bool"
				}
			],
			"payable": false,
			"stateMutability": "view",
			"type": "function"
		},
		{
			"constant": true,
			"inputs": [
				{
					"name": "",
					"type": "bytes32"
				}
			],
			"name": "claimed",
			"outputs": [
				{
					"name": "",
					"type": "bool"
				}
			],
			"payable": false,
			"stateMutability": "view",
			"type": "function"
		},
		{
			"anonymous": false,
			"inputs": [
				{
					"indexed": true,
					"name": "signer",
					"type": "address"
				},
				{
					"indexed": true,
					"name": "taker",
					"type": "address"
				},
				{
					"indexed": true,
					"name": "hash",
					"type": "bytes32"
				},
				{
					"indexed": false,
					"name": "tokenA",
					"type": "address"
				},
				{
					"indexed": false,
					"name": "tokenB",
					"type": "address"
				},
				{
					"indexed": false,
					"name": "valueA",
					"type": "uint256"
				},
				{
					"indexed": false,
					"name": "valueB",
					"type": "uint256"
				}
			],
			"name": "LogClaim",
			"type": "event"
		}
	]
}