{
	"data": {
		"bytecode": {
			"linkReferences": {},
			"object": "608060405234801561001057600080fd5b506000808055600155610546806100286000396000f3fe608060405234801561001057600080fd5b50600436106100935760003560e01c80638f7dcfa3116100665780638f7dcfa31461012f5780639507d39a14610137578063a661dc8614610170578063ed17585014610196578063edd004e5146101b357610093565b806313d8c8401461009857806335671214146100b25780634cc82215146100ea57806351cdac6b14610109575b600080fd5b6100a06101d0565b60408051918252519081900360200190f35b6100cf600480360360208110156100c857600080fd5b50356101d6565b60408051921515835260208301919091528051918290030190f35b6101076004803603602081101561010057600080fd5b503561023d565b005b6100cf6004803603602081101561011f57600080fd5b50356001600160a01b0316610339565b6100a0610390565b6101546004803603602081101561014d57600080fd5b5035610396565b604080516001600160a01b039092168252519081900360200190f35b6101076004803603602081101561018657600080fd5b50356001600160a01b03166103c0565b610154600480360360208110156101ac57600080fd5b503561048d565b6100cf600480360360208110156101c957600080fd5b50356104b4565b60015481565b600080825b60005481101561022f5760006001600160a01b03166002826001018154811061020057fe5b6000918252602090912001546001600160a01b031614610227576001925082019050610238565b6001016101db565b50600091508190505b915091565b60005481141561028c576102526000546104b4565b600081905560408051918252517f58b81d35330cc08b909b14dbf5bcf7c3e769206cd0be7dd65e76e95a815439e192509081900360200190a15b6001548114156102db576102a16001546101d6565b600181905560408051918252517f90e05de10c166e49cee65abeedb0cb9049c10787fcbe675315dc4dc61882f55992509081900360200190a15b600281815481106102e857fe5b60009182526020918290200180546001600160a01b03191690556040805183815290517fe1919cab237081e04a387d81704c769f832679b068e9b87b1d6a27eb5102b956929181900390910190a150565b60015460009081905b600054811161022f57836001600160a01b03166002828154811061036257fe5b6000918252602090912001546001600160a01b0316141561038857600192509050610238565b600101610342565b60005481565b6000600282815481106103a557fe5b6000918252602090912001546001600160a01b031692915050565b6002805460018101825560008281527f405787fa12a823e0f2b7631cc41b3ba8828b3321ca811111fa75cd3aa3bb5ace90910180546001600160a01b0319166001600160a01b0385169081179091559154600019019081905560408051918252602082019290925281517f1d0cd468802806ad62ac5af4f05e2d6288c23d9eefeebf7f8b316b39eb5da3b5929181900390910190a160005460408051918252517f58b81d35330cc08b909b14dbf5bcf7c3e769206cd0be7dd65e76e95a815439e19181900360200190a150565b6002818154811061049a57fe5b6000918252602090912001546001600160a01b0316905081565b600080825b60015481111561022f5760006001600160a01b0316600260018303815481106104de57fe5b6000918252602090912001546001600160a01b0316146105075760019250600019019050610238565b600019016104b956fea2646970667358221220048206237d51936343b9573454d1def12e9ba309fc7e38fc8166526bfb208d6864736f6c63430006000033",
			"opcodes": "PUSH1 0x80 PUSH1 0x40 MSTORE CALLVALUE DUP1 ISZERO PUSH2 0x10 JUMPI PUSH1 0x0 DUP1 REVERT JUMPDEST POP PUSH1 0x0 DUP1 DUP1 SSTORE PUSH1 0x1 SSTORE PUSH2 0x546 DUP1 PUSH2 0x28 PUSH1 0x0 CODECOPY PUSH1 0x0 RETURN INVALID PUSH1 0x80 PUSH1 0x40 MSTORE CALLVALUE DUP1 ISZERO PUSH2 0x10 JUMPI PUSH1 0x0 DUP1 REVERT JUMPDEST POP PUSH1 0x4 CALLDATASIZE LT PUSH2 0x93 JUMPI PUSH1 0x0 CALLDATALOAD PUSH1 0xE0 SHR DUP1 PUSH4 0x8F7DCFA3 GT PUSH2 0x66 JUMPI DUP1 PUSH4 0x8F7DCFA3 EQ PUSH2 0x12F JUMPI DUP1 PUSH4 0x9507D39A EQ PUSH2 0x137 JUMPI DUP1 PUSH4 0xA661DC86 EQ PUSH2 0x170 JUMPI DUP1 PUSH4 0xED175850 EQ PUSH2 0x196 JUMPI DUP1 PUSH4 0xEDD004E5 EQ PUSH2 0x1B3 JUMPI PUSH2 0x93 JUMP JUMPDEST DUP1 PUSH4 0x13D8C840 EQ PUSH2 0x98 JUMPI DUP1 PUSH4 0x35671214 EQ PUSH2 0xB2 JUMPI DUP1 PUSH4 0x4CC82215 EQ PUSH2 0xEA JUMPI DUP1 PUSH4 0x51CDAC6B EQ PUSH2 0x109 JUMPI JUMPDEST PUSH1 0x0 DUP1 REVERT JUMPDEST PUSH2 0xA0 PUSH2 0x1D0 JUMP JUMPDEST PUSH1 0x40 DUP1 MLOAD SWAP2 DUP3 MSTORE MLOAD SWAP1 DUP2 SWAP1 SUB PUSH1 0x20 ADD SWAP1 RETURN JUMPDEST PUSH2 0xCF PUSH1 0x4 DUP1 CALLDATASIZE SUB PUSH1 0x20 DUP2 LT ISZERO PUSH2 0xC8 JUMPI PUSH1 0x0 DUP1 REVERT JUMPDEST POP CALLDATALOAD PUSH2 0x1D6 JUMP JUMPDEST PUSH1 0x40 DUP1 MLOAD SWAP3 ISZERO ISZERO DUP4 MSTORE PUSH1 0x20 DUP4 ADD SWAP2 SWAP1 SWAP2 MSTORE DUP1 MLOAD SWAP2 DUP3 SWAP1 SUB ADD SWAP1 RETURN JUMPDEST PUSH2 0x107 PUSH1 0x4 DUP1 CALLDATASIZE SUB PUSH1 0x20 DUP2 LT ISZERO PUSH2 0x100 JUMPI PUSH1 0x0 DUP1 REVERT JUMPDEST POP CALLDATALOAD PUSH2 0x23D JUMP JUMPDEST STOP JUMPDEST PUSH2 0xCF PUSH1 0x4 DUP1 CALLDATASIZE SUB PUSH1 0x20 DUP2 LT ISZERO PUSH2 0x11F JUMPI PUSH1 0x0 DUP1 REVERT JUMPDEST POP CALLDATALOAD PUSH1 0x1 PUSH1 0x1 PUSH1 0xA0 SHL SUB AND PUSH2 0x339 JUMP JUMPDEST PUSH2 0xA0 PUSH2 0x390 JUMP JUMPDEST PUSH2 0x154 PUSH1 0x4 DUP1 CALLDATASIZE SUB PUSH1 0x20 DUP2 LT ISZERO PUSH2 0x14D JUMPI PUSH1 0x0 DUP1 REVERT JUMPDEST POP CALLDATALOAD PUSH2 0x396 JUMP JUMPDEST PUSH1 0x40 DUP1 MLOAD PUSH1 0x1 PUSH1 0x1 PUSH1 0xA0 SHL SUB SWAP1 SWAP3 AND DUP3 MSTORE MLOAD SWAP1 DUP2 SWAP1 SUB PUSH1 0x20 ADD SWAP1 RETURN JUMPDEST PUSH2 0x107 PUSH1 0x4 DUP1 CALLDATASIZE SUB PUSH1 0x20 DUP2 LT ISZERO PUSH2 0x186 JUMPI PUSH1 0x0 DUP1 REVERT JUMPDEST POP CALLDATALOAD PUSH1 0x1 PUSH1 0x1 PUSH1 0xA0 SHL SUB AND PUSH2 0x3C0 JUMP JUMPDEST PUSH2 0x154 PUSH1 0x4 DUP1 CALLDATASIZE SUB PUSH1 0x20 DUP2 LT ISZERO PUSH2 0x1AC JUMPI PUSH1 0x0 DUP1 REVERT JUMPDEST POP CALLDATALOAD PUSH2 0x48D JUMP JUMPDEST PUSH2 0xCF PUSH1 0x4 DUP1 CALLDATASIZE SUB PUSH1 0x20 DUP2 LT ISZERO PUSH2 0x1C9 JUMPI PUSH1 0x0 DUP1 REVERT JUMPDEST POP CALLDATALOAD PUSH2 0x4B4 JUMP JUMPDEST PUSH1 0x1 SLOAD DUP2 JUMP JUMPDEST PUSH1 0x0 DUP1 DUP3 JUMPDEST PUSH1 0x0 SLOAD DUP2 LT ISZERO PUSH2 0x22F JUMPI PUSH1 0x0 PUSH1 0x1 PUSH1 0x1 PUSH1 0xA0 SHL SUB AND PUSH1 0x2 DUP3 PUSH1 0x1 ADD DUP2 SLOAD DUP2 LT PUSH2 0x200 JUMPI INVALID JUMPDEST PUSH1 0x0 SWAP2 DUP3 MSTORE PUSH1 0x20 SWAP1 SWAP2 KECCAK256 ADD SLOAD PUSH1 0x1 PUSH1 0x1 PUSH1 0xA0 SHL SUB AND EQ PUSH2 0x227 JUMPI PUSH1 0x1 SWAP3 POP DUP3 ADD SWAP1 POP PUSH2 0x238 JUMP JUMPDEST PUSH1 0x1 ADD PUSH2 0x1DB JUMP JUMPDEST POP PUSH1 0x0 SWAP2 POP DUP2 SWAP1 POP JUMPDEST SWAP2 POP SWAP2 JUMP JUMPDEST PUSH1 0x0 SLOAD DUP2 EQ ISZERO PUSH2 0x28C JUMPI PUSH2 0x252 PUSH1 0x0 SLOAD PUSH2 0x4B4 JUMP JUMPDEST PUSH1 0x0 DUP2 SWAP1 SSTORE PUSH1 0x40 DUP1 MLOAD SWAP2 DUP3 MSTORE MLOAD PUSH32 0x58B81D35330CC08B909B14DBF5BCF7C3E769206CD0BE7DD65E76E95A815439E1 SWAP3 POP SWAP1 DUP2 SWAP1 SUB PUSH1 0x20 ADD SWAP1 LOG1 JUMPDEST PUSH1 0x1 SLOAD DUP2 EQ ISZERO PUSH2 0x2DB JUMPI PUSH2 0x2A1 PUSH1 0x1 SLOAD PUSH2 0x1D6 JUMP JUMPDEST PUSH1 0x1 DUP2 SWAP1 SSTORE PUSH1 0x40 DUP1 MLOAD SWAP2 DUP3 MSTORE MLOAD PUSH32 0x90E05DE10C166E49CEE65ABEEDB0CB9049C10787FCBE675315DC4DC61882F559 SWAP3 POP SWAP1 DUP2 SWAP1 SUB PUSH1 0x20 ADD SWAP1 LOG1 JUMPDEST PUSH1 0x2 DUP2 DUP2 SLOAD DUP2 LT PUSH2 0x2E8 JUMPI INVALID JUMPDEST PUSH1 0x0 SWAP2 DUP3 MSTORE PUSH1 0x20 SWAP2 DUP3 SWAP1 KECCAK256 ADD DUP1 SLOAD PUSH1 0x1 PUSH1 0x1 PUSH1 0xA0 SHL SUB NOT AND SWAP1 SSTORE PUSH1 0x40 DUP1 MLOAD DUP4 DUP2 MSTORE SWAP1 MLOAD PUSH32 0xE1919CAB237081E04A387D81704C769F832679B068E9B87B1D6A27EB5102B956 SWAP3 SWAP2 DUP2 SWAP1 SUB SWAP1 SWAP2 ADD SWAP1 LOG1 POP JUMP JUMPDEST PUSH1 0x1 SLOAD PUSH1 0x0 SWAP1 DUP2 SWAP1 JUMPDEST PUSH1 0x0 SLOAD DUP2 GT PUSH2 0x22F JUMPI DUP4 PUSH1 0x1 PUSH1 0x1 PUSH1 0xA0 SHL SUB AND PUSH1 0x2 DUP3 DUP2 SLOAD DUP2 LT PUSH2 0x362 JUMPI INVALID JUMPDEST PUSH1 0x0 SWAP2 DUP3 MSTORE PUSH1 0x20 SWAP1 SWAP2 KECCAK256 ADD SLOAD PUSH1 0x1 PUSH1 0x1 PUSH1 0xA0 SHL SUB AND EQ ISZERO PUSH2 0x388 JUMPI PUSH1 0x1 SWAP3 POP SWAP1 POP PUSH2 0x238 JUMP JUMPDEST PUSH1 0x1 ADD PUSH2 0x342 JUMP JUMPDEST PUSH1 0x0 SLOAD DUP2 JUMP JUMPDEST PUSH1 0x0 PUSH1 0x2 DUP3 DUP2 SLOAD DUP2 LT PUSH2 0x3A5 JUMPI INVALID JUMPDEST PUSH1 0x0 SWAP2 DUP3 MSTORE PUSH1 0x20 SWAP1 SWAP2 KECCAK256 ADD SLOAD PUSH1 0x1 PUSH1 0x1 PUSH1 0xA0 SHL SUB AND SWAP3 SWAP2 POP POP JUMP JUMPDEST PUSH1 0x2 DUP1 SLOAD PUSH1 0x1 DUP2 ADD DUP3 SSTORE PUSH1 0x0 DUP3 DUP2 MSTORE PUSH32 0x405787FA12A823E0F2B7631CC41B3BA8828B3321CA811111FA75CD3AA3BB5ACE SWAP1 SWAP2 ADD DUP1 SLOAD PUSH1 0x1 PUSH1 0x1 PUSH1 0xA0 SHL SUB NOT AND PUSH1 0x1 PUSH1 0x1 PUSH1 0xA0 SHL SUB DUP6 AND SWAP1 DUP2 OR SWAP1 SWAP2 SSTORE SWAP2 SLOAD PUSH1 0x0 NOT ADD SWAP1 DUP2 SWAP1 SSTORE PUSH1 0x40 DUP1 MLOAD SWAP2 DUP3 MSTORE PUSH1 0x20 DUP3 ADD SWAP3 SWAP1 SWAP3 MSTORE DUP2 MLOAD PUSH32 0x1D0CD468802806AD62AC5AF4F05E2D6288C23D9EEFEEBF7F8B316B39EB5DA3B5 SWAP3 SWAP2 DUP2 SWAP1 SUB SWAP1 SWAP2 ADD SWAP1 LOG1 PUSH1 0x0 SLOAD PUSH1 0x40 DUP1 MLOAD SWAP2 DUP3 MSTORE MLOAD PUSH32 0x58B81D35330CC08B909B14DBF5BCF7C3E769206CD0BE7DD65E76E95A815439E1 SWAP2 DUP2 SWAP1 SUB PUSH1 0x20 ADD SWAP1 LOG1 POP JUMP JUMPDEST PUSH1 0x2 DUP2 DUP2 SLOAD DUP2 LT PUSH2 0x49A JUMPI INVALID JUMPDEST PUSH1 0x0 SWAP2 DUP3 MSTORE PUSH1 0x20 SWAP1 SWAP2 KECCAK256 ADD SLOAD PUSH1 0x1 PUSH1 0x1 PUSH1 0xA0 SHL SUB AND SWAP1 POP DUP2 JUMP JUMPDEST PUSH1 0x0 DUP1 DUP3 JUMPDEST PUSH1 0x1 SLOAD DUP2 GT ISZERO PUSH2 0x22F JUMPI PUSH1 0x0 PUSH1 0x1 PUSH1 0x1 PUSH1 0xA0 SHL SUB AND PUSH1 0x2 PUSH1 0x1 DUP4 SUB DUP2 SLOAD DUP2 LT PUSH2 0x4DE JUMPI INVALID JUMPDEST PUSH1 0x0 SWAP2 DUP3 MSTORE PUSH1 0x20 SWAP1 SWAP2 KECCAK256 ADD SLOAD PUSH1 0x1 PUSH1 0x1 PUSH1 0xA0 SHL SUB AND EQ PUSH2 0x507 JUMPI PUSH1 0x1 SWAP3 POP PUSH1 0x0 NOT ADD SWAP1 POP PUSH2 0x238 JUMP JUMPDEST PUSH1 0x0 NOT ADD PUSH2 0x4B9 JUMP INVALID LOG2 PUSH5 0x6970667358 0x22 SLT KECCAK256 DIV DUP3 MOD 0x23 PUSH30 0x51936343B9573454D1DEF12E9BA309FC7E38FC8166526BFB208D6864736F PUSH13 0x63430006000033000000000000 "
		},
		"gasEstimates": {
			"creation": {
				"codeDepositCost": "270000",
				"executionCost": "10324",
				"totalCost": "280324"
			},
			"external": {
				"addHead(address)": "65973",
				"find(address)": "infinite",
				"get(uint256)": "1997",
				"head()": "998",
				"next(uint256)": "infinite",
				"objects(uint256)": "2036",
				"prev(uint256)": "infinite",
				"remove(uint256)": "infinite",
				"tail()": "999"
			}
		},
		"methodIdentifiers": {
			"addHead(address)": "a661dc86",
			"find(address)": "51cdac6b",
			"get(uint256)": "9507d39a",
			"head()": "8f7dcfa3",
			"next(uint256)": "edd004e5",
			"objects(uint256)": "ed175850",
			"prev(uint256)": "35671214",
			"remove(uint256)": "4cc82215",
			"tail()": "13d8c840"
		}
	},
	"abi": [
		{
			"inputs": [],
			"stateMutability": "nonpayable",
			"type": "constructor"
		},
		{
			"anonymous": false,
			"inputs": [
				{
					"indexed": false,
					"internalType": "uint256",
					"name": "id",
					"type": "uint256"
				}
			],
			"name": "NewHead",
			"type": "event"
		},
		{
			"anonymous": false,
			"inputs": [
				{
					"indexed": false,
					"internalType": "uint256",
					"name": "id",
					"type": "uint256"
				}
			],
			"name": "NewTail",
			"type": "event"
		},
		{
			"anonymous": false,
			"inputs": [
				{
					"indexed": false,
					"internalType": "uint256",
					"name": "id",
					"type": "uint256"
				},
				{
					"indexed": false,
					"internalType": "address",
					"name": "data",
					"type": "address"
				}
			],
			"name": "ObjectCreated",
			"type": "event"
		},
		{
			"anonymous": false,
			"inputs": [
				{
					"indexed": false,
					"internalType": "uint256",
					"name": "id",
					"type": "uint256"
				}
			],
			"name": "ObjectRemoved",
			"type": "event"
		},
		{
			"inputs": [
				{
					"internalType": "address",
					"name": "_data",
					"type": "address"
				}
			],
			"name": "addHead",
			"outputs": [],
			"stateMutability": "nonpayable",
			"type": "function"
		},
		{
			"inputs": [
				{
					"internalType": "address",
					"name": "_data",
					"type": "address"
				}
			],
			"name": "find",
			"outputs": [
				{
					"internalType": "bool",
					"name": "",
					"type": "bool"
				},
				{
					"internalType": "uint256",
					"name": "",
					"type": "uint256"
				}
			],
			"stateMutability": "view",
			"type": "function"
		},
		{
			"inputs": [
				{
					"internalType": "uint256",
					"name": "_id",
					"type": "uint256"
				}
			],
			"name": "get",
			"outputs": [
				{
					"internalType": "address",
					"name": "",
					"type": "address"
				}
			],
			"stateMutability": "view",
			"type": "function"
		},
		{
			"inputs": [],
			"name": "head",
			"outputs": [
				{
					"internalType": "uint256",
					"name": "",
					"type": "uint256"
				}
			],
			"stateMutability": "view",
			"type": "function"
		},
		{
			"inputs": [
				{
					"internalType": "uint256",
					"name": "_id",
					"type": "uint256"
				}
			],
			"name": "next",
			"outputs": [
				{
					"internalType": "bool",
					"name": "",
					"type": "bool"
				},
				{
					"internalType": "uint256",
					"name": "",
					"type": "uint256"
				}
			],
			"stateMutability": "view",
			"type": "function"
		},
		{
			"inputs": [
				{
					"internalType": "uint256",
					"name": "",
					"type": "uint256"
				}
			],
			"name": "objects",
			"outputs": [
				{
					"internalType": "address",
					"name": "",
					"type": "address"
				}
			],
			"stateMutability": "view",
			"type": "function"
		},
		{
			"inputs": [
				{
					"internalType": "uint256",
					"name": "_id",
					"type": "uint256"
				}
			],
			"name": "prev",
			"outputs": [
				{
					"internalType": "bool",
					"name": "",
					"type": "bool"
				},
				{
					"internalType": "uint256",
					"name": "",
					"type": "uint256"
				}
			],
			"stateMutability": "view",
			"type": "function"
		},
		{
			"inputs": [
				{
					"internalType": "uint256",
					"name": "_id",
					"type": "uint256"
				}
			],
			"name": "remove",
			"outputs": [],
			"stateMutability": "nonpayable",
			"type": "function"
		},
		{
			"inputs": [],
			"name": "tail",
			"outputs": [
				{
					"internalType": "uint256",
					"name": "",
					"type": "uint256"
				}
			],
			"stateMutability": "view",
			"type": "function"
		}
	]
}